:020000040000FA
:06080000C2EF2AF0120015
:02080600FEFFF3
:0608080000EF14F01200E5
:02080E00C250D6
:08081000020B01E0010E1200D1
:06081800AFEF0FF012002B
:02081E000900CF
:10082000D74F0000FF0100000100000075560000D6
:100830006E0200000A0000007156000082020000F3
:1008400004000000585600001B02000019000000C0
:100850000608000089020000020000005556000052
:100860008602000003000000515600007E020000D6
:100870000400000049560000580F00000800000066
:0C0880002E560000000200001B000000CB
:04088C0082EC09F001
:10089000FB0EDBCFF3FFDB06F35000090AE0D0ECE0
:1008A00009F0FA0E3BEC0AF0F3E1011CF1E1010E54
:1008B00001D0000EB1EF09F082EC09F03B0EE1240B
:1008C00002E3E168E652E16E010EDB6A020EDB6ACA
:1008D000F90EDBCFF6FFFA0EDBCFF7FFFB0EDBCF17
:1008E000F8FF0800F550DF6EDF5002E1D7EF08F0A7
:1008F000250EDF5C02E0CAEF08F0030EDB6A040E8F
:10090000DB6A050EDB6A060EDB6A070EDB6AEAECC1
:1009100008F02D0EDF5C0CE02B0EDF5C09E0200EF2
:10092000DF5C06E0230EDF5C03E0300EDF5C1AE1E3
:10093000DF50300A14E0130A0FE0030A0AE00B0A42
:1009400005E0060AE4E1030EDB80E1D7030EDB825B
:10095000DED7030EDB84DBD7030EDB86D8D7030E8E
:10096000DB88D5D72A0EDF5C1BE1E6EC08F034EC1F
:1009700009F010E0030EDB8035683668130EDBCF1C
:100980003AF0140EDBCF3BF089EC1CF0040E33C0C0
:10099000DBFF03D0130E1DEC09F0EAEC08F00BD0DE
:1009A000090EDB6A8BEC09F003E0FFEC09F0FAD7E3
:1009B000090E1DEC09F0030EDBB0DB982E0EDF5C98
:1009C0001BE1EAEC08F02A0EDF5C0BE1E6EC08F034
:1009D00034EC09F003E1130E6FEC09F0EAEC08F0D7
:1009E0000BD0090EDB6A8BEC09F003E0FFEC09F099
:1009F000FAD7090E6FEC09F0680EDF5C07E1EAEC4C
:100A000008F0680EDF5C1DE1030E18D0740EDF5C89
:100A100017E07A0EDF5C14E0480EDF5C06E0540E4F
:100A2000DF5C03E05A0EDF5C02E1020E07D06C0EC1
:100A3000DF5C03E06A0EDF5C04E1010EC2EC09F04A
:100A4000C9DBDF506E0A01E181D31E0A01E192D1B8
:100A5000200A01E18FD13F0A01E149D11A0A01E1DF
:100A600046D10D0A01E143D1200A01E140D13A0A01
:100A700001E13DD1200A01E13AD1260A01E135D157
:100A80000D0A01E132D11A0A01E1D9D0200A4AE067
:100A9000300A1FE0460A0EE0250A01E085D3D9504E
:100AA000F90FE96EFF0EDA20EA6E010EEE5E000E1F
:100AB000EE5AEE5AD0EC09F0250EE66E95DB03E116
:100AC000011C01E16BD3CCEC09F001E26DD3DB2A10
:100AD0006BD3080EDB6A040EDB50010806E2040E3D
:100AE000DB0494EC09F0DB508BDB080EDB5009E0F3
:100AF000030EDB50010B05E172DB01E04FD3080E62
:100B0000DB6A64DBEFCFDFFF44EC0AF003E1011C9A
:100B100001E144D3CCEC09F001E3DB2A60DB01E125
:100B200043D33CD3070EDB5002080FE110EC0AF070
:100B3000030ED7EC09F00E0EEECFDBFF0F0EEECF5B
:100B4000DBFF100EEECFDBFF20D0F70EDBCF03F084
:100B5000F80EDBCF04F0020E035E000E045AF70E0F
:100B600003C0DBFFF80E04C0DBFF03C0E9FF04C0D5
:100B7000EAFFC7EC09F0026A0E0E00C0DBFF0F0EA1
:100B800001C0DBFF100E02C0DBFF0E0EDBCFE6FF65
:100B90000F0EDBCFE6FF100EDBCFE6FFC1EC28F037
:100BA000E552E552E552130E34C0DBFF140E35C09A
:100BB000DBFF060EDB5005E0130E0BEC0AF001E242
:100BC0006ADB2FEC0AF002E2130E37DBF2EC09F0DD
:100BD00006E0040E0BEC0AF002E2050E2EDB030E1B
:100BE000DBB005D0FCDA01E0D9D2080EDB6A090ED1
:100BF000DB6A0E0EDBCFF6FF0F0EDBCFF7FF100E1A
:100C0000DBCFF8FF0800F550DF6EDF5014E035EC65
:100C10000AF011E244EC0AF003E1011C01E1BED24A
:100C2000BBDB01E3DB2A090EDB2AD9500E0FE96E8C
:100C3000000ECBDBE7D7D3DA01E1B6D2AFD2C6DA0A
:100C4000110EEECFDBFF120EEDCFDBFF110EDBCF6F
:100C5000E6FF120EDBCFE6FFB3EC28F0E552E552DB
:100C6000130EF3CFDBFF140EF4CFDBFF060EDB50C9
:100C700004E0130ED0DB01E20EDB2FEC0AF002E2FF
:100C8000130EDBDAAFDB05E0040EC5DB02E2050E76
:100C9000D4DA030EDBB005D0A2DA01E07FD2080E71
:100CA000DB6A090EDB6A110EDBCFE9FF120EDBCF28
:100CB000EAFFEFCFDFFFDF5014E0D7DB12E2E4DB27
:100CC00003E1011C01E16AD267DB01E3DB2A090EC3
:100CD000DB2A110EDB2ADBCFE9FF120EE8E3DB2A69
:100CE000E6D77DDA01E160D259D2030EDB8E070E22
:100CF000DB0410E195DB040E5ADB0A0EEECFDBFFBE
:100D00000B0EEECFDBFF0C0EEECFDBFF0D0EEECFAA
:100D1000DBFF6CD0070EDB5003082CE1030EDBAECB
:100D20000DD0B2DA020E76DAEFCF00F0016A026A75
:100D3000036A00AE39D00168026835D0F70EDBCF08
:100D400001F0F80EDBCF02F0020E015E000E025A37
:100D5000F70E01C0DBFFF80E02C0DBFF01C0E9FFA8
:100D600002C0EAFFEFCF00F00A0E00C0DBFF0B0E5F
:100D7000DB6A38D0070EDB50020809E1030EDBAE58
:100D800004D059DB02AE10D00ED055DB0DD0030ECF
:100D9000DBAE12D079DA020E3DDAF9DA026A036AC2
:100DA00001AE02D002680368E2DA0C0E02C0DBFF7B
:100DB0000D0E03C0DBFF1AD0F70EDBCF02F0F80EEA
:100DC000DBCF03F0020E025E000E035AF70E02C0E4
:100DD000DBFFF80E03C0DBFF02C0E9FF03C0EAFF40
:100DE000D6DAC5DA0C0EDB6A0D0EDB6A060EDB50B6
:100DF00005E1010EF36E050EF3CFDBFF150EDB6A86
:100E0000160EDB6AD950370F006E000EDA20016E25
:100E1000390E00C0DBFF3A0E01C0DBFF380EDB6A83
:100E2000080EDB6A0A0EAEDADF50780A12E0200AFA
:100E300010E0280A0CE0200A0AE03F0A06E00D0A4A
:100E400002E0200A08E1020E05D0080E03D0080EC9
:100E5000DF26100E97DA030EDBBE02D0DB92DB94A6
:100E6000DB50800B26E08ADA030EEB50000AE8AE76
:100E700002D0D89008D0000EEE5C000EEE58000EA6
:100E8000EE58000EEE5815E211DA386839683A6803
:100E90003B6872EC29F00A0E2FC0DBFF0B0E30C04E
:100EA000DBFF0C0E31C0DBFF0D0E32C0DBFF2D0E61
:100EB00008D0030EDBA202D02B0E03D0DBA408D097
:100EC000200EF36E170EF3CFDBFF150EDB2A02D0D8
:100ED000170EDB6A050EDB5003E1B5D901E189D0BD
:100EE000120E006E560E016E000E026E070EDBCF64
:100EF00003F0046A056A066A03C038F004C039F0DA
:100F000005C03AF006C03BF0D1D943EC2AF00050BE
:100F10002F24F36E01503020F46E02503120F86E11
:100F2000F4CFF7FFF3CFF6FF0800090EF5CFDBFF94
:100F3000580EDF5C0FE1610EF36E090E79D90AE3FA
:100F4000200E006E090EDBCFE7FF0050E75E090EB2
:100F5000E7CFDBFF070EDBCF00F0016A026A036A0E
:100F60000DDA00C038F001C039F002C03AF003C019
:100F70003BF0EECF33F0EECF34F0EECF35F0EFCFE5
:100F800036F043EC2AF036C0EDFF35C0EDFF34C03B
:100F9000EDFF33C0EFFF390EDBCFE9FFDB063A0E82
:100FA000DBCFEAFF01E2DB06090EDBCFEFFF150E18
:100FB000DB2A49D995E1030EDBA61DD06F0EDF5C5D
:100FC00006E1BFD918E3150EDB2859DA14D0780EE4
:100FD000DF5C09E0580EDF5C06E0620EDF5C03E0D8
:100FE000420EDF5C08E1020EF36E160EF3CFDBFF5C
:100FF00002D0150EDB6A030EDB50100B0EE0040E60
:10100000DBCF00F0050EDB50D880005406E2060E60
:10101000DB5003E1040EDB5032DA93D90AE2050E0D
:10102000DBCFE7FF150EDB50E75E050EE7CFDBFFFA
:1010300002D0050EDB6A040EDBCF00F0160E43D99A
:10104000D880005414E2160EDBCFE6FF150EDBCF7E
:10105000E6FF040EDBCFE6FF050EDB50E552E75C52
:10106000E552D880E754E552D880E7545DD9030EA5
:10107000DB50010B0BE1080EDB5008E0B0D801E0BB
:101080008DD0080EDB50BCD8080EDB6A170EDB5083
:1010900007E086D9170EEFD903E1011C01E17ED0EC
:1010A000160EDB5016E07CD9300EE66E9DD802E1BC
:1010B000011C74E075D9DFCFE6FF30EC29F0E55272
:1010C000E552E552F4CF01F00001F31C02E1011CEE
:1010D00065E0050EDBCF00F0160EDB50D880005423
:1010E00009E2050EDBCFE7FF160EDB50E75E050ECB
:1010F000E7CFDBFF300EE66E050EC9D94FE1390EA2
:10110000DB2ADBCFE9FF3A0E01E3DB2ADBCFEAFF84
:10111000090EEFCFDBFFDB500EE042D9090EABD951
:1011200002E1011C3BE0390EDB2ADBCFE9FF3A0E7E
:10113000EDE3DB2AEBD753D831E1160EDBCFE6FF28
:10114000080EC1D8E552E7245BD82ED0070EDB503D
:10115000030A1CE0010A14E0030A07E079D9DBCF97
:10116000EEFF020EDBCFEDFF1FD0F3D8056A03AE12
:1011700002D0046805682AD8BAD805C0EEFF14D09A
:10118000E8D803BE046822D8B2D80ED061D9DBCF2C
:10119000EFFF0AD079D905E1011C03E1F368F46897
:1011A00010D0FAD801E3DB2A77D971EF04F0010EF1
:1011B000DBCF00F0020EDBCF01F000C0F3FF01C077
:1011C000F4FFD9CFE1FFDACFE2FFCBD029D9020E6D
:1011D000D7EF09F061D90800F550DF6E1200200E3C
:1011E000E66E080E47EF0AF030EC29F0E552E552C2
:1011F000E552F3CF00F0F4CF01F00001F31C120030
:10120000006E016AD950010F4DD90050EE260150F1
:10121000ED221200045E000E055AF70E04C0DBFF3B
:10122000F80E05C0DBFF04C0E9FF05C0EAFF1200AD
:10123000DBCFF4FFF350F45C1200DB50E76E040EDA
:10124000E7CFDBFF12000A0EDBCF00F00B0EDBCF87
:1012500001F00C0EDBCF02F00D0EDBCF03F00050DF
:101260000110021003101200130EEECFDBFF140E5C
:10127000EDCFDBFF130EDBCF00F0140EDBCF01F060
:101280000001800E01141200F70EDBCF04F0F80EFF
:10129000DBCF05F01200050EDB50E66ED950130FC0
:1012A00001D9E552E750EE6EED6A12000A0EDBCF6F
:1012B00033F00B0EDBCF34F00C0EDBCF35F00D0E20
:1012C000DBCF36F01200DBCFE6FF150EDBCFE6FFFB
:1012D000050EDB50E552E724E552E7241200DB500F
:1012E000CED8010EF36E060EF3CFDBFF1200EE50E8
:1012F000EFCFEAFFE96E02C0EEFF03C0EEFF04C0CD
:10130000EEFF1200D9CFE6FFDACFE6FFE1CFD9FF3B
:10131000E2CFDAFF1200DFCFE6FFE66AB0EC2AF098
:10132000E552E552F3501200E76E080EE7CFDBFFFF
:101330001200EECF00F0EECF01F0EFCF02F0036A23
:101340001200050EDBCF00F0150EDB50D8800054E4
:101350001200010EDBCF02F0020EDBCF03F0046AB5
:101360001200E552E5CFDAFFE7CFD9FF12000A0EEF
:1013700000C0DBFF0B0E01C0DBFF1200D9500A0FCB
:1013800052EF0AF0F36E070EF3CFDBFF1200EECF41
:1013900000F0EFCF01F01200010EDB2A020E120066
:1013A000FC0EDBCFE6FFFD0EDBCFE6FF1200005E9A
:1013B000000E015AF70E00C0DBFFF80E01C0DBFF84
:1013C00000C0E9FF01C0EAFF1200DA20EA6EEF2A4E
:1013D000EECFF6FF000EEF22EECFF7FFEF22EECFBB
:1013E000F8FF1200040EDBCFE6FF130EDB50E552D0
:1013F000E75C9ADFDB5004DF060EDB501200090EBB
:10140000DB500A0DF350DF24D00FE76E090EE7CF53
:10141000DBFFEAEF08F0DB50F36E050E18EF09F082
:10142000F70EDBCF00F0F80EDBCF01F01200DFCFBC
:10143000E6FFF4EF08F028DF030EECDE99EF09F089
:1014400046EC04F0E552E552E552E552000912007F
:10145000BDDEEE50EFCFEAFFE96E010E1200130E73
:10146000DB50F36E040E18EF09F0040EDB50F36E40
:10147000090E18EF09F0DBCFE6FFF4EF08F0E76E96
:10148000050EE7CFDBFF12008BDF17EF0AF0DBCF93
:10149000E6FF86DF20EF0AF0D950F90FE96EFF0E64
:0E14A000E5EF09F0E96E000EDA20EA6E1200A8
:0214AE00D9CF94
:1014B000E6FFE1CFD9FFFE0EDB5011E1FC0EDBCFE2
:1014C000E9FFFD0EDBCFEAFFEF507F0808E2FC0EDC
:1014D000DBCFE9FFFD0EDBCFEAFF7F0EEF6EE552BB
:1014E000E7CFD9FF1200D9CFE6FFE1CFD9FFFE0E3B
:1014F000DB5013E1FC0EDBCFE9FFFD0EDBCFEAFF93
:10150000EFCF00F07F0E005C08E2FC0EDBCFE9FFBE
:10151000FD0EDBCFEAFF7F0EEF6EE552E7CFD9FF7E
:101520001200D9CFE6FFE1CFD9FFFD0EDBCF00F0EF
:10153000FE0EDBCF01F0D890015004E6D00E005C27
:10154000070E015806E20201D00E7C6F070E7D6F78
:1015500019D0FD0EDBCF00F0FE0EDBCF01F0013421
:1015600004E20050CE08080E015406E20201CE0E3D
:101570007C6F080E7D6F06D0FD0EDBCF7CF2FE0E79
:10158000DBCF7DF27CC200F07DC201F0D00E005EA8
:10159000070E015A005000D0E552E7CFD9FF1200E4
:1015A000938A93889386938499829980938E938C5F
:1015B0009A849A82998699849A8A9A8894809A863B
:1015C0009A8E9A9C919C01017F0E8B6F8BC18AF140
:1015D0008BC189F18BC188F18BC187F18BC186F1F9
:1015E0008BC185F18BC184F1936F93C192F193C14B
:1015F00091F193C190F193C18FF193C18EF193C199
:101600008DF193C18CF1000EE66EE66AE66EE66A35
:10161000E66EE66AE66EE66A62EC15F0F56E080EB6
:10162000E15EF5505EEC23F077EC23F00201010E51
:101630001B6FC8EC24F095EC1FF0800EE66E010ED7
:10164000E66E20EC15F0E552E552A7EF14F0D9CF85
:10165000E6FFE1CFD9FF040EE126A00EE66E010EF3
:10166000E66E07EC15F0E552E55291EC17F092ECBE
:101670001DF0800EE66E010EE66E20EC15F0E552D0
:10168000E552A00EE66E010EE66E07EC15F0E5528F
:10169000E5520F01582B000E59235A2B5B23010EE4
:1016A0005A1901E15B5110E13A0E006E4F0E016EC6
:1016B000026A00C0E6FF01C0E6FF02C0E6FFE6ECFA
:1016C00028F0E552E552E5520F01060E5A1901E1E4
:1016D0005B5102E16DEC25F00F01C80E5A1901E1D2
:1016E0005B5114E179EC25F0AFEC25F0340E006E7F
:1016F0004F0E016E026A00C0E6FF01C0E6FF02C0A5
:10170000E6FFE6EC28F0E552E552E5520F011E0E29
:10171000585D000E595914E3C80E5A5D000E5B590E
:101720000FE325EC25F033C0DEFF34C0DEFF35C00B
:10173000DEFF36C0DDFFDD52DD520F01586B596B05
:10174000E0DAD9CFE1FFE552E7CFD9FF1200D9CFD8
:10175000E6FFE1CFD9FF020EE126FE0EDBCFE6FF6A
:10176000FD0EDB50E552E75CFF0DF350DE6EDD6AE7
:10177000FD0EDB50DE26000EDD22DF5000D0D9CF7B
:10178000E1FFE552E7CFD9FF1200D9CFE6FFE1CF65
:10179000D9FF020EE126FD0EDBCFE6FFFE0EDB5089
:1017A000810FE552E702F3507F0FDE6EDD6ADECF78
:1017B00000F0DDCF01F0013404E20050FF08000E1C
:1017C000015403E2DE68DD6A0AD0DECF00F0DDCF2F
:1017D00001F00001800E011402E0DE6ADD6ADF50D4
:1017E00000D0D9CFE1FFE552E7CFD9FF1200D9CF22
:1017F000E6FFE1CFD9FF020EE126FE0EDB50810F9E
:10180000006E00C036F0FD0EDBCF3BF0F0EC2AF0AE
:1018100036507F0FDE6EDD6ADF5000D0D9CFE1FF9A
:10182000E552E7CFD9FF1200D9CFE6FFE1CFD9FFCC
:10183000020EE126FE0EDB50006E016A013404E266
:1018400000508008000E015413E20C0E026E02C01C
:101850003BF0ADC136F0F0EC2AF03650016A9E0F35
:10186000006E000E012200C0DEFF01C0DDFF1AD0B5
:10187000780EF36EFE0EDBCFF4FFF350F45C0FE254
:10188000660E006E0C0E016E01C03BF0ADC136F06D
:10189000F0EC2AF03650005CDE6EDD6A03D07F0E7D
:1018A000DE6EDD6ADF5000D0D9CFE1FFE552E7CF31
:1018B000D9FF1200D9CFE6FFE1CFD9FF060EE1260E
:1018C000DE6ADD6A020EDB6A030EDB6A040EDB6A87
:1018D000050EDB6AFE0EDBCF02F0036A02BE036870
:1018E000FA0EDBCF35F0FB0EDBCF36F002C03AF05C
:1018F00003C03BF089EC1CF033C000F034C001F0B1
:10190000640E3A6E3B6A00C035F001C036F02FEC31
:101910001CF035C000F036C001F000C0DEFF01C091
:10192000DDFFFD0EDBCF02F0036A02BE03680F018C
:1019300002505C03F3CF00F0F4CF01F05D03F350ED
:101940000001012603500F015C03F3500001012642
:10195000640E3A6E3B6A00C035F001C036F02FECE1
:101960001CF035C000F036C001F0020E00C0DBFFF5
:10197000030E01C0DBFFFA0EDBCF35F0FB0EDBCF31
:1019800036F00F015E51355C026E5F513658036EC2
:10199000FC0EDBCF04F0056A04BE056800010450AC
:1019A0000202F3CF00F0F4CF01F00302F35001265E
:1019B00005500202F3500126640E3A6E3B6A00C0E5
:1019C00035F001C036F02FEC1CF035C000F036C009
:1019D00001F0040E00C0DBFF050E01C0DBFFFA0EB4
:1019E000DBCF35F0FB0EDBCF36F035500F015C2737
:1019F00036505D23FA0EDBCF5EFFFB0EDBCF5FFFC1
:101A0000DECF00F0DDCF01F0013404E200503C08ED
:101A1000000E015404E23C0EDE6EDD6A0FD0DECF14
:101A200000F0DDCF01F0D880015004E7BA0E005C71
:101A3000FF0E015803E2BA0EDE6EDD685D3504E28A
:101A40005C515808020E5D5505E2580E5C6F020E9F
:101A50005D6F0CD0D8805D5104E7A80E5C5DFD0E73
:101A60005D5904E2A80E5C6FFD0E5D6FFA0EDBCFD0
:101A700000F0FB0EDBCF01F0D880015004E7FE0E32
:101A8000005CFF0E01580DE3FA0EDBCF02F0FB0EF7
:101A9000DBCF03F0033404E202500208000E0354CB
:101AA00002E25C6B5D6BFD0EDBCF00F0016A00BEF5
:101AB000016800C0E6FF01C0E6FFFE0EDBCF02F0CA
:101AC000036A02BE036802C0E6FF03C0E6FFFA0E27
:101AD000DBCFE6FFFB0EDBCFE6FF040EDBCFE6FF3E
:101AE000050EDBCFE6FF020EDBCFE6FF030EDBCFFA
:101AF000E6FFDECFE6FFDDCFE6FFFE0E046E4E0E04
:101B0000056E066A04C0E6FF05C0E6FF06C0E6FFF4
:101B1000E6EC28F0F56E0F0EE15EF550DECF04F036
:101B2000DDCF05F04F0E0426080E0522020EDB5015
:101B30000424026E030EDB500520036E040EDB50FE
:101B40000224006E050EDB500320016E00C0E6FF8C
:101B500001C0E6FFE6DCE552E55200D0D9CFE1FF57
:101B6000E552E7CFD9FF1200D9CFE6FFE1CFD9FF89
:101B7000020EE126FD0EDBCF00F0FE0EDBCF01F002
:101B8000FC0EDB50026E036A0050025C01500358E9
:101B900005E2FC0EDB50DE6EDD6A13D0FD0EDBCFFE
:101BA00000F0FE0EDBCF01F0000E005C000E0158CD
:101BB00003E2DE6ADD6A05D0FD0EDBCFDEFFDBCFA0
:101BC000DDFFDF5000D0D9CFE1FFE552E7CFD9FFED
:101BD0001200D9CFE6FFE1CFD9FF020EE126FC0EBD
:101BE000DB507F0838E2FD0EDB507F0F046E056A84
:101BF000010E3A6E3F0E3B6E04C035F005C036F064
:101C00002FEC1CF035C004F036C005F0FC0EDB50A4
:101C1000810F086EFC0EDB50810F0802F350066E38
:101C2000076A000106500402F3CF02F0F4CF03F07C
:101C30000502F350032607500402F3500326FE0E5C
:101C4000DB500224006E000E0320016E00C0DEFF98
:101C500001C0DDFF4ED07F0EF36EFC0EDBCFF4FF34
:101C6000F350F45C43E2FE0EDB50096E0A6AFC0E90
:101C7000DB50810F086EFC0EDB50810F0802F35021
:101C8000066E076AFD0EDB507F0F046E056A010EBB
:101C90003A6E3F0E3B6E04C035F005C036F02FECB7
:101CA0001CF035C004F036C005F03568366804C055
:101CB0003AF005C03BF089EC1CF033C002F034C0B0
:101CC00003F002C035F003C036F006C03AF007C09A
:101CD0003BF089EC1CF00950335C006E0A5034581C
:101CE000016E00C0DEFF01C0DDFF03D07F0EDE6E9F
:101CF000DD6ADF5000D0D9CFE1FFE552E7CFD9FF51
:101D000012000101A2A906D0010188698769A8C152
:101D100089F105D001017F0E886F876F896F0101FE
:101D2000A1BBCAD0000EA65D07E3A651380804E3A4
:101D30000101809180832DD07D0EA65D0EE3A6511A
:101D4000006E016A013404E200508108000E015463
:101D500004E30101808180831CD0A651006E016ADA
:101D6000D890015004E6D80E005C000E01580EE336
:101D7000A651026E036A033404E20250FF08000E0B
:101D8000035404E301018081809303D00101809119
:101D90008093000E0101A75D07E3A751380804E313
:101DA0000101809580872DD07D0EA75D0EE3A751A0
:101DB000006E016A013404E200508108000E0154F3
:101DC00004E30101808580871CD0A751006E016A61
:101DD000D890015004E6D80E005C000E01580EE3C6
:101DE000A751026E036A033404E20250FF08000E9A
:101DF000035404E301018085809703D0010180959D
:101E00008097809B8D50010B01E0808B80998C50D6
:101E1000010B01E08089809F8D50020B01E0808FD3
:101E2000809D8C50020B01E0808D0101C75101089B
:101E300002E3000E01D0010E0101010BF36EFE0E54
:101E40008115F310816F84516D080BE28451006E8F
:101E5000016AD890015004E68B0E005C000E015818
:101E600002E3000E01D0010E010BF36EF346FD0EEE
:101E70008115F310816F8551006E016A013404E20F
:101E80000050AF08000E01540BE28551026E036A48
:101E9000D890035004E6B90E025C000E035802E32A
:101EA000000E01D0010E010BF36EF346F346FB0E5C
:101EB0008115F310816F52D0B7C136F0ACEC1AF037
:101EC00034C008F035C009F036C00AF037C00BF056
:101ED000710E396E3D0E3A6E7A0E3B6E410E3C6EBF
:101EE00008C034F009C035F00AC036F00BC037F036
:101EF000C2EC1BF034C004F035C005F036C006F06B
:101F000037C007F0396A3A6A800E3B6E430E3C6E6A
:101F100004C034F005C035F006C036F007C037F015
:101F20006FEC1BF034C000F035C001F036C002F099
:101F300037C003F0396A3A6A200E3B6E410E3C6EA0
:101F400000C034F001C035F002C036F003C037F0F5
:0E1F5000C2EC1BF0B6EC1CF036C080F11200A3
:021F5E00D8CFDA
:101F6000E4FFE0CFE4FFE46EDACFE4FFE2CFDAFF94
:101F7000E9CFE4FFEACFE4FFF3CFE4FFF4CFE4FFDF
:101F800000EE00F0180EE80403E3EECFE4FFFBD709
:101F9000E6529E50200B06E09D50200B03E03EECE5
:101FA00024F02ED0A450200B06E0A350200B03E019
:101FB0005DEC24F025D09E50100B06E09D50100BD8
:101FC00003E07CEC24F01CD0A450100B06E0A350DE
:101FD000100B03E094EC24F013D09E50020B07E0AA
:101FE0009D50020B04E09E92C2EC20F009D09E505E
:101FF000400B06E09D50400B03E09E9CC4EC20F09B
:10200000E55200EE17F0180EE80403E3E5CFEDFF0C
:10201000FBD7E5CFF4FFE5CFF3FFE5CFEAFFE5CF50
:10202000E9FFE5CFDAFFE550E5CFE0FFE5CFD8FFE8
:10203000100001017F0E8B6F8BC18AF18BC189F17A
:102040008BC188F18BC187F18BC186F18BC185F182
:102050008BC184F1936F93C192F193C191F193C1BC
:1020600090F193C18FF193C18EF193C18DF193C122
:102070008CF18C928D928C908D908C968D968C9408
:102080008D948C9A8D9A8C988D988C9E91908C9C26
:102090008D9C0201046B056B046B056B0A6B0B6B6B
:1020A000126B006B0101A1AD99D30101C0A195D3C1
:1020B000A00EE66E010EE66E07EC15F0E552E55255
:1020C00093C1E6FF92C1E6FF91C1E6FF90C1E6FF32
:1020D000E2EC22F0E552E552E552E5528150040B64
:1020E00001E0010E0201586F8150100B01E0010E5A
:1020F000596F8150400B400A01E0010E5A6F815028
:10210000800B800A01E0010E5B6F8750010B010A12
:102110005C6F8750020B020A01E0010E5D6F875071
:10212000040B040A01E0010E5E6F8750080B080AD9
:1021300001E0010E5F6F8850020B020A01E0010E00
:10214000606F8850040B040A01E0010E616F595161
:10215000E8245825010F0201006F25EC25F033C05B
:102160000CF234C00DF284C10EF285C10FF2C7C16A
:1021700010F291EC17F0020100053CE10D3504E28C
:102180000C511908000E0D5508E3D8800D5104E7D5
:10219000E70E0C5DFF0E0D5908E20101866B8A699E
:1021A0008C0E8B6F6D0E8C6F24D001017F0E8A6FA9
:1021B0008AC186F10201042B000E0523420E045D44
:1021C000000E055906E20101BB0E8B6F590E8C6F94
:1021D00010D06E0E045D000E055906E20101A70E37
:1021E0008B6F630E8C6F05D00101890E8B6F7F0E94
:1021F0008C6FE3D2020E005D01E04BD219C2E6FF04
:102200001AC2E6FF18C200F0016A00BE016800C0F1
:10221000E6FF01C0E6FF04C2E6FF05C2E6FFAE0E20
:10222000026E4F0E036E046A02C0E6FF03C0E6FFB3
:1022300004C0E6FFE6EC28F0F56E090EE15EF5500D
:1022400092EC1DF05AC202F0036A02BE0368E80E67
:102250000226030E032202015B51E824046E056A84
:1022600004BE056802500424006E03500520016E70
:10227000040E5C03F3CF06F0076A06BE0768005041
:1022800006240201196F015007201A6FE80E195F2A
:10229000030E1A5B2C0E1A03F3CF1AF21903F3CFB5
:1022A00019F2F4501A2718510DE1042B000E0523E2
:1022B000600E136F1951045D1A51055902E3010EA6
:1022C000186F1ED1180505E17F0E136F020E186FEF
:1022D00017D1020E185D2AE10101C851640822E2FB
:1022E00002010F51006E016AD890015004E6AF0E52
:1022F000005C000E015803E2600E136F12D00F5104
:10230000006E016A013404E20050B908000E015465
:1023100003E2A00E136F05D07F0E136F030E186F2C
:10232000176B03D002017F0E136FEAD0030E185D06
:1023300001E0E6D07F0E136F0101C851006E016A03
:10234000013404E20050AA08000E015401E3A7D0B2
:102350000201175101E090D025EC25F0BFEC1AF0F6
:1023600034C000F035C001F036C002F037C003F0D1
:1023700084C136F0ACEC1AF034C014F035C015F05E
:1023800036C016F037C017F0396A3A6AF80E3B6E5D
:10239000420E3C6E14C034F015C035F016C036F055
:1023A00017C037F0D8EC1AF034C010F035C011F077
:1023B00036C012F037C013F0396A3A6A820E3B6EAB
:1023C000420E3C6E10C034F011C035F012C036F031
:1023D00013C037F0C2EC1BF034C00CF035C00DF068
:1023E00036C00EF037C00FF0396A3A6AF80E3B6E0D
:1023F000420E3C6E0CC034F00DC035F00EC036F00D
:102400000FC037F06FEC1BF034C008F035C009F096
:1024100036C00AF037C00BF0396A3A6A200E3B6EBC
:10242000410E3C6E08C034F009C035F00AC036F0E9
:102430000BC037F0C2EC1BF034C004F035C005F01F
:1024400036C006F037C007F004C039F005C03AF0D6
:1024500006C03BF007C03CF000C034F001C035F0CE
:1024600002C036F003C037F0D9EC1AF0DDEC1CF0F6
:1024700035C062F236C063F20201010E176F9D0E85
:10248000006E4F0E016E026A00C0E6FF01C0E6FF5B
:1024900002C0E6FFE6EC28F0E552E552E552020103
:1024A0000E51006E016AD890015004E6890E005C5E
:1024B000000E01580AE20E51750807E20101C851E9
:1024C000640803E20101896903D001017F0E896F6D
:1024D00002010F51006E016A013404E20050B90894
:1024E000000E01540BE30F51026E036AD8900350A3
:1024F00004E6AA0E025C000E035802E2020E186FF8
:102500000E51E66EE66A0101C851E66EE66A17C230
:1025100000F0016A00BE016800C0E6FF01C0E6FFEE
:1025200018C202F0036A02BE036802C0E6FF03C0DD
:10253000E6FF640E046E4F0E056E066A04C0E6FFE9
:1025400005C0E6FF06C0E6FFE6EC28F0F56E0B0ED0
:10255000E15EF5500201170557E17F0EE66E62C29B
:1025600004F063C205F0066A076A05AE02D0066889
:10257000076804C0E6FF05C0E6FF06C0E6FF07C027
:10258000E6FF25EC25F0E552E7CF07F0E552E7CF6F
:1025900006F0E552E7CF05F0E552E7CF04F03350FF
:1025A000045C006E34500558016E35500658026EBA
:1025B00036500758036E00C0E6FF01C0E6FF320E3A
:1025C000E66E0F0EE66E4B0EE66E5AEC0CF0F56EF4
:1025D000050EE15EF550E66EA7EC0BF0E552E55214
:1025E0000201146F0E516D080BE30E51006E016A6B
:1025F000D890015004E68B0E005C000E015801E2F9
:1026000003D0030E185D00E11451036AD00F026E6F
:10261000070E0322135100010224006E000E032056
:10262000016E7F0E005E000E015A00C0E6FF01C081
:10263000E6FF91EC0AF0E552E55201018B6F0201D1
:102640001451036AD00F026E070E03221351046E59
:10265000056A0450025C006E05500358016E7F0E3F
:102660000026000E012200C0E6FF01C0E6FF91EC4B
:102670000AF0E552E55201018C6F88BA05D0B40E1C
:10268000886F88C187F104D0FE0E886F88C187F1FA
:1026900094D0030E005D01E090D0042B000E0523C2
:1026A00002015B51E8245A250201126F125133E1F5
:1026B000820E016A0425006E05510122D00E00260B
:1026C000070E012200C0E6FF01C0E6FF91EC0AF010
:1026D000E552E55201018B6F04C200F005C201F022
:1026E000020E0F0B05E0D89001320032E806FBE144
:1026F000680E0026000E0122D00E0026070E0122D1
:1027000000C0E6FF01C0E6FF91EC0AF0E552E55299
:1027100001018C6F52D0120527E104C2E6FF05C209
:10272000E6FF540E006E4F0E016E026A00C0E6FF17
:1027300001C0E6FF02C0E6FFE6EC28F0F56E050EEC
:10274000E15EF5500201580E045D000E055906E2E7
:102750000101C80E8B6F360E8C6F05D001017F0E04
:102760008C6F8CC18BF129D0020E125D26E104C260
:10277000E6FF05C2E6FF540E006E4F0E016E026AC0
:1027800000C0E6FF01C0E6FF02C0E6FFE6EC28F06D
:10279000F56E050EE15EF5500201B00E045D000E0F
:1027A000055906E20101A30E8B6F5A0E8C6F05D0FE
:1027B00001017F0E8C6F8CC18BF1ADEC20F0000914
:1027C00004E0B5EC25F0BDEC20F0800EE66E010EC5
:1027D000E66E20EC15F0E552E55264D41200ADEC43
:1027E00020F0000904E0B5EC25F0BDEC20F012006B
:1027F000D9CFE6FFE1CFD9FFE552E7CFD9FF1200ED
:10280000DACFE4FFE2CFDAFFE9CFE4FFEACFE4FF7B
:10281000E652F2A202D0A0D802D09EB6CCD8E552A1
:10282000E5CFEAFFE5CFE9FFE5CFDAFF1100E66A81
:10283000010EE66E050EE66EDEEC29F0E552E5527D
:10284000E5521200070EB46E000E886E876E866E1B
:10285000856E846E836E826E816E806E916E906ED8
:102860008F6E8E6E8D6E8C6E8B6E8A6E896E2F0E55
:10287000926EFD0E936E9C0E946E956A966A9768A2
:10288000040E986E0E0E9A6E9968C16AF19EB09809
:102890009C8EA26A9F6AA06A9D6AA36AA56AC7DF26
:1028A0009F86D08E9E969D86F06AF288F09EF09864
:1028B000F192F09AF16AF28CF28E1200D9CFE6FF13
:1028C000E1CFD9FFE652BEDF0101C097C0990101F7
:1028D000840EFD6F010EFE6FDF6A100EDF5C0AE2F0
:1028E000DF50EA6AFD25E96EFE51EA227F0EEF6EA7
:1028F000DF2AF3D701019D6B010E9E6FC20E9F6F01
:102900000101C0850101A26BA36B0101806B826B89
:10291000836B010ED56E320ED76ECF0ED66ED59E5E
:10292000800EE66E010EE66E8BD8E552E55201018F
:10293000C093800EE66E010EE66E82D8E552E55237
:102940000101C093E552E552E7CFD9FF1200828220
:102950008088949292981200F2920101200EF96FF1
:102960009F860101C0A906D00101E00EF66F000E9E
:10297000F76F05D00101C00EF66F000EF76F010171
:10298000C0A1C079C0A706D00101800EF46F000E6F
:10299000F56F05D00101A00EF46F000EF56FC9CFE1
:1029A000FAF1F4C1E9FFF5C1EAFFF42B000EF523BB
:1029B000EF50C96E12009E96C9CFFAF10101F9518C
:1029C000000823E2F6C1E9FFF7C1EAFFF62B000E8B
:1029D000F723FAC1EFFFF4C1E9FFF5C1EAFFF42BD9
:1029E000F523EFCFFAF1FAC1C9FFF907F9510CE16C
:1029F0000101020E9E6F0101C093C081320ED76E9D
:102A0000CF0ED66EF294D58E01D0C96A1200D9CFFE
:102A1000E6FFE1CFD9FF0101C0A10ED0FD0EDBCF53
:102A2000E6FFFE0EDBCFE6FF4EEC22F0E552E5526C
:102A30009D960101C0919D86E552E7CFD9FF120016
:102A4000D9CFE6FFE1CFD9FF0101C0B332D0FD0EEF
:102A5000DBCFE9FFFE0EDBCFEAFF1E0EE926000EFC
:102A6000EA22EF50020809E1FD0EDBCFE6FFFE0E81
:102A7000DBCFE6FF69D8E552E552FD0EDBCFE9FF7B
:102A8000FE0EDBCFEAFF150EE926000EEA22EF9ECE
:102A9000FD0EDBCFE6FFFE0EDBCFE6FFBCEC21F048
:102AA000E552E5529D960101C077C0839D860101E4
:102AB0009D2BE552E7CFD9FF12009D960101C091F1
:102AC0009D861200D9CFE6FFE1CFD9FF00012E6B22
:102AD000D950FD0FE96EFF0EDA20EA6E010EEE18F6
:102AE00001E1ED5002E12E8101D0BA6AD950FB0F0D
:102AF000E96EFF0EDA20EA6E010EEE1801E1ED50EC
:102B000002E12E8301D0B76AD950F90FE96EFF0EAA
:102B1000DA20EA6E010EEE1801E1ED5002E12E8599
:102B200001D0736AD950F70FE96EFF0EDA20EA6E12
:102B3000010EEE1801E1ED5002E12E8701D0706A1E
:102B4000E552E7CFD9FF1200D9CFE6FFE1CFD9FF99
:102B5000FD0EDBCFE9FFFE0EDBCFEAFF1C0EE92600
:102B6000000EEA22EF6AFD0EDBCFE9FFFE0EDBCF9F
:102B7000EAFF170EE926000EEA22EF6AC6AE0ED073
:102B8000C69EFD0EDBCFE9FFFE0EDBCFEAFF170E80
:102B9000E926000EEA22010EEF6E22D0F150800BE2
:102BA00010E0F250080B0DE0FD0EDBCFE9FFFE0E4A
:102BB000DBCFEAFF170EE926000EEA22020EEF6EC7
:102BC0000FD0F0A60DD0909EFD0EDBCFE9FFFE0EDC
:102BD000DBCFEAFF170EE926000EEA22030EEF6EA6
:102BE000250EC614250819E0FD0EDBCFE9FFFE0E09
:102BF000DBCFEAFF1C0EE926000EEA22010EEF6E83
:102C0000FD0EDBCFE9FFFE0EDBCFEAFF170EE92654
:102C1000000EEA22C6CFEFFF80D1C55019E0FD0EAD
:102C2000DBCFE9FFFE0EDBCFEAFF1C0EE926000E2C
:102C3000EA22020EEF6EFD0EDBCFE9FFFE0EDBCFC8
:102C4000EAFF170EE926000EEA22C5CFEFFF65D195
:102C5000D0BE19D0FD0EDBCFE9FFFE0EDBCFEAFFC1
:102C60001C0EE926000EEA22030EEF6EFD0EDBCFEE
:102C7000E9FFFE0EDBCFEAFF170EE926000EEA227F
:102C8000D0CFEFFF4AD19DB619D0FD0EDBCFE9FFC3
:102C9000FE0EDBCFEAFF1C0EE926000EEA22040E30
:102CA000EF6EFD0EDBCFE9FFFE0EDBCFEAFF170E66
:102CB000E926000EEA229DCFEFFF2FD19C5019E0AC
:102CC000FD0EDBCFE9FFFE0EDBCFEAFF1C0EE9268F
:102CD000000EEA22050EEF6EFD0EDBCFE9FFFE0EC1
:102CE000DBCFEAFF170EE926000EEA229CCFEFFFAA
:102CF00014D1080E9F5C19E0FD0EDBCFE9FFFE0E3C
:102D0000DBCFEAFF1C0EE926000EEA22060EEF6E6C
:102D1000FD0EDBCFE9FFFE0EDBCFEAFF170EE92643
:102D2000000EEA229FCFEFFFF8D0A25019E0FD0E6F
:102D3000DBCFE9FFFE0EDBCFEAFF1C0EE926000E1B
:102D4000EA22070EEF6EFD0EDBCFE9FFFE0EDBCFB2
:102D5000EAFF170EE926000EEA22A2CFEFFFDDD030
:102D6000A55019E0FD0EDBCFE9FFFE0EDBCFEAFF39
:102D70001C0EE926000EEA22080EEF6EFD0EDBCFD8
:102D8000E9FFFE0EDBCFEAFF170EE926000EEA226E
:102D9000A5CFEFFFC2D0100EF214100819E0FD0EFF
:102DA000DBCFE9FFFE0EDBCFEAFF1C0EE926000EAB
:102DB000EA22090EEF6EFD0EDBCFE9FFFE0EDBCF40
:102DC000EAFF170EE926000EEA22F2CFEFFFA5D0A8
:102DD000470EF11419E0FD0EDBCFE9FFFE0EDBCF4D
:102DE000EAFF1C0EE926000EEA220A0EEF6EFD0E27
:102DF000DBCFE9FFFE0EDBCFEAFF170EE926000E60
:102E0000EA22F1CFEFFF89D0C00EF01419E0FD0ED9
:102E1000DBCFE9FFFE0EDBCFEAFF1C0EE926000E3A
:102E2000EA220B0EEF6EFD0EDBCFE9FFFE0EDBCFCD
:102E3000EAFF170EE926000EEA22F0CFEFFF6DD071
:102E400092A819D0FD0EDBCFE9FFFE0EDBCFEAFF23
:102E50001C0EE926000EEA220C0EEF6EFD0EDBCFF3
:102E6000E9FFFE0EDBCFEAFF170EE926000EEA228D
:102E700092CFEFFF52D093B019D0FD0EDBCFE9FF18
:102E8000FE0EDBCFEAFF1C0EE926000EEA220D0E35
:102E9000EF6EFD0EDBCFE9FFFE0EDBCFEAFF170E74
:102EA000E926000EEA2293CFEFFF37D03E0E9414AE
:102EB0001C0819E0FD0EDBCFE9FFFE0EDBCFEAFFB9
:102EC0001C0EE926000EEA220E0EEF6EFD0EDBCF81
:102ED000E9FFFE0EDBCFEAFF170EE926000EEA221D
:102EE00094CFEFFF1AD097BE18D0FD0EDBCFE9FFCD
:102EF000FE0EDBCFEAFF1C0EE926000EEA220F0EC3
:102F0000EF6EFD0EDBCFE9FFFE0EDBCFEAFF170E03
:102F1000E926000EEA2297CFEFFFE552E7CFD9FF6F
:022F200012009D
:0E2F2200D9CFE6FFE1CFD9FF040EE126020170
:102F30006E510BE1F0D8DF6EDF0404E10201010EF7
:102F40006E6F03D0DF50010800E2DADAE76E010E9F
:102F5000E7CFDBFFDB50000817E2030EDB6A010E50
:102F6000DB50F36E030EDBCFF4FFF350F45C0CE2A6
:102F7000CBDAE76E020EE7CFDBFFDBCFE6FF0AD846
:102F8000E552030EDB2AEBD7D9CFE1FFE552E7CFBD
:102F9000D9FF1200D9CFE6FFE1CFD9FF0201755169
:102FA000060A01E18FD0030A68E0060A34E0010A4C
:102FB00025E0030A01E0ABD0FE0EDB50006E016A93
:102FC000FF0E001801E1015003E1020E756F15D0EC
:102FD000FE0EDB50410807E10101020EEC6F020119
:102FE000050E756F0AD0FE0EDB504E0806E101019A
:102FF000020EEC6F0201060E756F89D0FE0EDB50DB
:10300000540806E10101EB6B0201030E756F02D05B
:10301000010E756F7CD00101EB51006E016A080E44
:10302000005C000E01580AE2EB51EA6AC90FE96E32
:10303000010EEA22FE0EDBCFEFFFEB2BEB51006E11
:10304000016A080E001801E1015016E1C9C1C1F181
:10305000CAC1C2F1CBC1C3F1CCC1C4F1CDC1C5F16C
:10306000CEC1C6F1CFC1C7F1D0C1C8F102016F2BEB
:10307000000E7023010E756F4AD0020E0101EC5D47
:1030800006E1FE0EDB50430802E1EC2B1AD0030EE2
:10309000EC5D06E1FE0EDB504B0802E1EC2B11D09B
:1030A000040EEC5D0BE1FE0EDB500D0807E10201A2
:1030B000712B000E7223010E756F03D00201010EF9
:1030C000756F25D0020E0101EC5D06E1FE0EDB50AE
:1030D000430802E1EC2B1AD0030EEC5D06E1FE0E74
:1030E000DB504B0802E1EC2B11D0040EEC5D0BE140
:1030F000FE0EDB500D0807E10201732B000E742356
:10310000010E756F03D00201010E756F00D0E552FC
:10311000E7CFD9FF1200D9CFE6FFE1CFD9FFE652C2
:103120000201760507E18BD9050EE66E94D9E552CA
:103130000201766B77050DE1776B0101EE6B010EF5
:10314000ED6FEF6BF06BF16B0201716B726B736B78
:10315000746B0101EE0529E10201010E715D000EA3
:10316000725905E30101EE6BEF6BF06B1DD0010EA0
:10317000735D000E745904E30101ED05F16F14D085
:1031800001010A0EEF5D000EF0590BE3800EED25F4
:10319000006E016A000E01220006015A00C0F1F122
:1031A00003D0EF2B000EF0230AD10201716B726B7A
:1031B000736B746B0101ED51120A01E1FDD0030A3A
:1031C00001E1E3D0010A01E1D6D01F0A01E1C6D036
:1031D000010A01E1B6D0030A01E1A6D0010A01E12A
:1031E00096D0070A01E186D0010A01E178D0030AEE
:1031F00069E0010A5AE00F0A4BE0010A3CE0030AC9
:103200002DE0010A1EE0070A0FE0010A09E0030AA7
:1032100001E0D5D014D90101020EED6FEE6BCFD0D5
:10322000030EED6FEE6BCBD0800EE66E290EE66ED0
:1032300049D9E552E5520101040EED6F010EEE6F22
:10324000BED0200EE66E130EE66E3CD9E552E55276
:103250000101050EED6F010EEE6FB1D0840EE66E2A
:103260002D0EE66E2FD9E552E5520101060EED6FE7
:10327000010EEE6FA4D0800EE66E2A0EE66E22D905
:10328000E552E5520101070EED6F010EEE6F97D08A
:10329000200EE66E2B0EE66E15D9E552E5520101C1
:1032A000080EED6F010EEE6F8AD0840EE66E2D0EC5
:1032B000E66E08D9E552E5520101090EED6F010EE7
:1032C000EE6F7DD0200EE66E120EE66EFBD8E55254
:1032D000E55201010A0EED6F010EEE6F70D0E66A45
:1032E000E66AF0D8E552E55201010B0EED6F010ED2
:1032F000EE6F65D0800EE66E010EE66EE3D8E55205
:10330000E55201010C0EED6F010EEE6F58D0800EEC
:10331000E66E020EE66ED6D8E552E55201010D0EBC
:10332000ED6F010EEE6F4BD0760EE66E030EE66E7D
:10333000C9D8E552E55201010E0EED6F010EEE6F98
:103340003ED0010EE66E060EE66EBCD8E552E552A2
:1033500001010F0EED6F010EEE6F31D0010EE66E22
:10336000100EE66EAFD8E552E5520101100EED6F7A
:10337000010EEE6F24D0010EE66E8BD8E5520101EE
:10338000110EED6F010EEE6F1AD0830EE66E6F0E0A
:10339000E66E1A0EE66E0F0EE66E710EE66E5D0EAE
:1033A000E66E1BD8F56E060EE15EF5500101120EB9
:1033B000ED6F010EEE6F03D0010EF16F00D0F151F1
:1033C000000803E20201010E776F0101F15100D004
:1033D000E552E552E7CFD9FF1200D9CFE6FFE1CFA2
:1033E000D9FF540EE66E94D8E552430EE66E90D89F
:1033F000E552060EE66E8CD8E552FE0EDBCFE6FFF8
:1034000087D8E552FD0EDBCFE6FF82D8E552FC0EF1
:10341000DBCFE6FF7DD8E552FB0EDBCFE6FF78D8A9
:10342000E552FA0EDBCFE6FF73D8E552F90EDBCF9B
:10343000E6FF6ED8E552E552E7CFD9FF12000D0E38
:10344000E66E66D8E552120002016E6B12000201B0
:103450006E5100D01200D9CFE6FFE1CFD9FF520E56
:10346000E66E56D8E5524D0EE66E52D8E552200E65
:10347000E66E4ED8E552FE0EDB50300FE66E48D8B1
:10348000E5520D0EE66E44D8E552E552E7CFD9FF7E
:103490001200D9CFE6FFE1CFD9FF4E0EE66E38D845
:1034A000E552460EE66E34D8E552010EE66E30D88F
:1034B000E552FE0EDBCFE6FF2BD8E552E552E7CF13
:1034C000D9FF1200D9CFE6FFE1CFD9FF430EE66E58
:1034D0001FD8E552520EE66E1BD8E552020EE66E7C
:1034E00017D8E552FE0EDBCFE6FF12D8E552FD0EEF
:1034F000DBCFE6FF0DD8E552E552E7CFD9FF12004A
:10350000A0EC23F000D01200D6EC23F000D0120083
:10351000D9CFE6FFE1CFD9FFFE0EDBCFE6FF1DECF2
:1035200024F0E552E552E7CFD9FF120090EC23F0EA
:1035300000D01200B0EC23F000D01200D9CFE6FF8B
:10354000E1CFD9FFFE0EDBCFE6FFFCEC23F0E55226
:08355000E552E7CFD9FF12009C
:083558003E9E05D03E9E36AEFA
:1035600002D0366C3E8E36C030F02F6A426A416A15
:10357000860E316E326A28EF1DF03E9E0CD03E9EC4
:1035800036AE09D0336C341E351E361EE86A34223E
:10359000352236223E8E36C030F035C02FF034C092
:1035A00042F033C041F09E0E316E326A28EF1DF0BA
:1035B0003C7E3E6A64EC1DF07CEC1DF03EB60CEFE8
:1035C0001DF03EA20AD03EAA03D03EBE0CEF1DF075
:1035D0003EA418EF1DF015EF1DF03EAA05D03EAC3D
:1035E00018EF1DF015EF1DF03EA00AD03EA808D040
:1035F0003EBE04D03EA402D021EF1DF025EF1DF009
:10360000416A326A3C50375C406E10E334C042F08D
:1036100035C02FF036C030F037C03FF039C034F03D
:103620003AC035F03BC036F03E3A09D039C042F0DE
:103630003AC02FF03BC030F03CC03FF0406C3E9EA3
:103640003EBC3E8E3FC031F03EB054EF1DF01A0E2E
:10365000406054EF1DF0316A376A3EA408D0346CE4
:10366000351E361E371EE86A3522362237223EAC1A
:1036700008D0426C2F1E301E311EE86A2F223022E5
:103680003122336A405207E0373436323532343231
:103690003332402EF9D73450422635502F2236503F
:1036A00030223750312233C041F03E9E31AE0BD034
:1036B000416C421E2F1E301E311EE86A42222F220C
:1036C000302231223E8E31A006D0D88030322F32C7
:1036D000423241323F2A3FC031F028EF1DF03E6AAE
:1036E00064EC1DF07CEC1DF03EB60CEF1DF03EA22C
:1036F00005D03EBA0CEF1DF013EF1DF03EBA1FEFE0
:103700001DF03EA005D03EB80CEF1DF01FEF1DF0E0
:103710003EB813EF1DF0326A7F0E3724316EE86A2F
:1037200032223C50315EE86A325A1A0E3F6E376AD6
:10373000416A426A2F6A306A3950345E3A50355ACB
:103740003B50365A000E375A09E7395034263A5062
:1037500035223B503622000E372201D0418AD890C4
:103760003436353636363736D890413642362F36EF
:1037700030363F2EE1D7365035103410D8A4418A68
:1037800028EF1DF03E6A64EC1DF07CEC1DF03EB6A7
:103790000CEF1DF03EA205D03EB80CEF1DF013EF6C
:1037A0001DF03EAA05D03EB00CEF1DF013EF1DF04A
:1037B0003EB002D03EA802D01FEF1DF0326A3C504E
:1037C0003724316EE86A32227E0E315EE86A325A60
:1037D000416A426A2F6A306A3B503602F4CF30F0B9
:1037E000F3CF2FF03A503602F3504226F4502F22F6
:1037F000000E30223B503502F3504226F4502F2267
:10380000000E302239503602F3504126F450422245
:10381000000E2F2230223A503502F3504126F45048
:103820004222000E2F2230223B503402F350412618
:10383000F4504222000E2F22302239503502F4502B
:103840004126000E42222F2230223A503402F450F8
:103850004126000E42222F22302228EF1DF03D6A21
:103860003BAE38EF1CF03A6C3B1EE86A3B223D1E33
:1038700036AE40EF1CF0356C361EE86A36223D1E2F
:1038800086EC2AF036BE50EF1CF03DAE000C356CD5
:10389000361EE86A3622316C321EE86A3222000C8B
:1038A0003DBE47EF1CF03E88FF0C3D6AE86A3BAE28
:1038B00062EF1CF0386C391E3A1E3B1E39223A2248
:1038C0003B223D1E36AE6DEF1CF0336C341E351EB0
:1038D000361E3422352236223D1E43EC2AF036BEF7
:1038E00084EF1CF03DAE000C336C341E351E361ECA
:1038F000E86A3422352236222F6C301E311E321EE9
:10390000302231223222000C3DBE74EF1CF03E8882
:10391000FF0C36C042F035C041F035503A02F4CFCA
:1039200034F0F3CF33F036503B02F4CF36F0F3CF20
:1039300035F03A02F3503426F4503522E86A362244
:1039400041503B02F3503426F4503522E86A3622C7
:103950003BAEAFEF1CF04150355E4250365A42AE9E
:10396000000C3A50355E3B50365A000C3E6A64EC0F
:103970001DF03EB6C0EF1CF03EA20AD03EB403D00C
:103980007F0E366E19D0800E366E16D0366A14D081
:103990003EB0FCD7870E3760F1D77E0E3764F6D77E
:1039A000860E375C04E0D8903632372AF9D73EA429
:1039B00003D0366C36AEEAD712003E6A64EC1DF0D6
:1039C0003EB6E7EF1CF03EA20ED03EB405D07F0E0F
:1039D000366EFF0E356E1FD0800E366E356A1BD0E8
:1039E000366A356A18D03EB0FBD78F0E3760EDD7F8
:1039F0007E0E3764F5D78E0E375C05E0D8903632F0
:103A00003532372AF8D73EA406D0356C361EE86A20
:103A1000362236AEE5D712007F0E376EFF0E366EB9
:103A2000356E346E12007F0E3EBEFF0E376E02D032
:103A30007F0E376E800E366E356A346AF3D73EAE2F
:103A400004D0800E376E366AF7D7376A366AF4D7F5
:103A500030502F1042104110F8E032BEF0D730BE87
:103A60000CD031503210EBE0D890413642362F3630
:103A700030363106D8A03206F2D73250D4E13128A0
:103A8000D2E041AE11D07F0E411402E142A00CD031
:103A9000422AE86A2F22302207E3D88030322F32C0
:103AA0004232312A3128BFE03150C9E042C034F0FF
:103AB0002FC035F03034366E3130376E3632379EA7
:103AC0003EBE378E12EF1DF03636373602E33E84A7
:103AD0003E7E06E13E80376A366A356A346A1200F5
:103AE000372803E0D88036321200D890363202E10F
:103AF0003E8212003E8612003B363C3602E33E8C8C
:103B00003E7E06E13E883C6A3B6A3A6A396A1200A8
:103B10003C2803E0D8803B321200D8903B32EAE1E7
:043B20003E8A1200C7
:0C3B2400D9CFE6FFE1CFD9FF0A0EE12661
:103B300002017E5102016F1904E102017F5102016D
:103B4000701901E1ECD16FC27EF270C27FF2010107
:103B5000C25101E166D101018451DE6EDD6A0101CD
:103B6000C151006E016A7F0E005E000E015A060E02
:103B700000C0DBFF070E01C0DBFF060EDBCF00F04D
:103B8000070EDBCF01F0013404E200500608000EFE
:103B9000015425E2040E006E016A060EDBCF35F0FB
:103BA000070EDBCF36F000C03AF001C03BF02FEC3F
:103BB0001CF0040E35C0DBFF050E36C0DBFFD9500C
:103BC000040FE96EDACFEAFFEE50ED1007E1010EC7
:103BD000F36E040EF3CFDBFF050EDB6A34D0060E66
:103BE000DBCF00F0070EDBCF01F0D880015004E7F7
:103BF000FA0E005CFF0E015822E2040E006E016A0C
:103C0000060EDBCF35F0070EDBCF36F000C03AF002
:103C100001C03BF02FEC1CF0040E35C0DBFF050E9D
:103C200036C0DBFFD950040FE96EDACFEAFFEE5061
:103C3000ED1004E1040EDB68050EDB6804D0040E11
:103C4000DB6A050EDB6A040EDBCF00F0050EDBCF6E
:103C500001F0D9CFE9FFDACFEAFF0050EE2601509C
:103C6000ED22DECF00F0DDCF01F00001800E011467
:103C700003E0DE6ADD6A0ED0DECF00F0DDCF01F0BA
:103C8000013404E20050F808000E015403E2F80E7B
:103C9000DE6EDD6ADFCF84F101018551E66ED95019
:103CA000020FE96EDACFEAFFE552E750EE6EED6AF9
:103CB0000101C251006E016A770E005E000E015ACA
:103CC000080E00C0DBFF090E01C0DBFF080EDBCFD2
:103CD00000F0090EDBCF01F0013404E200500608C9
:103CE000000E015425E2040E006E016A080EDBCFBF
:103CF00035F0090EDBCF36F000C03AF001C03BF0E2
:103D00002FEC1CF0040E35C0DBFF050E36C0DBFFC8
:103D1000D950040FE96EDACFEAFFEE50ED1007E15B
:103D2000010EF36E040EF3CFDBFF050EDB6A34D019
:103D3000080EDBCF00F0090EDBCF01F0D880015078
:103D400004E7FA0E005CFF0E015822E2040E006E3A
:103D5000016A080EDBCF35F0090EDBCF36F000C06C
:103D60003AF001C03BF02FEC1CF0040E35C0DBFF35
:103D7000050E36C0DBFFD950040FE96EDACFEAFF3B
:103D8000EE50ED1004E1040EDB68050EDB6804D094
:103D9000040EDB6A050EDB6A35683668040EDBCF7D
:103DA0003AF0050EDBCF3BF089EC1CF033C000F09D
:103DB00034C001F0D950020FE96EDACFEAFF0050AB
:103DC000EE260150ED22020EDBCF00F0030EDBCF1A
:103DD00001F0D890015004E6900E005C000E0158EE
:103DE00008E2900EF36E020EF3CFDBFF030EDB6AE8
:103DF00014D0020EDBCF00F0030EDBCF01F0013454
:103E000004E20050BE08000E015407E2BE0EF36E3D
:103E1000020EF3CFDBFF030EDB6A020EDBCF85F170
:103E20007ED00201812B8151010801E378D0816BA2
:103E300080050BE1806BDE6ADD6A900EF36E020E88
:103E4000F3CFDBFF030EDB6A65D001018451DE6E28
:103E5000DD6A8551E66ED950020FE96EDACFEAFFCE
:103E6000E552E750EE6EED6ADECF00F0DDCF01F0F7
:103E7000D890015004E6F80E005C000E015837E3BC
:103E8000DE6ADD6A020EDBCF00F0030EDBCF01F04D
:103E9000D890015004E6BE0E005C000E015808E305
:103EA000900EF36E020EF3CFDBFF030EDB6A1ED023
:103EB000D950020FE96EDACFEAFF180EEE26000E97
:103EC000ED22020EDBCF00F0030EDBCF01F0D89025
:103ED000015004E6BE0E005C000E015807E3BE0E62
:103EE000F36E020EF3CFDBFF030EDB6A13D01F0E5F
:103EF000DE26000EDD22DECF00F0DDCF01F0D8900F
:103F0000015004E6F80E005C000E015803E3F80EC1
:103F1000DE6EDD6ADFCF84F1020EDBCF85F1D9CF13
:0A3F2000E1FFE552E7CFD9FF1200E0
:063F2A00D9CFE6FFE1CF54
:103F3000D9FFE652C80E0201346F356B020E386F9E
:103F4000010E396F040E366F376BDF6A3851DF5C54
:103F500010E2DF50040DF3CFE9FFF4CFEAFF3A0E91
:103F6000E926020EEA22EE6AEE6AEE6AEE6ADF2ABD
:103F7000EDD7466B476B486B010EC26EC16A860E69
:103F8000C06E9F9C9E9C9D8C34C2E6FF35C2E6FFAE
:103F900014D8E552E552E552E552E7CFD9FF1200B9
:103FA000D9CFE6FFE1CFD9FFE6525FD89D9CC26A28
:103FB000E552E552E7CFD9FF1200D9CFE6FFE1CFB6
:103FC000D9FFFD0EDBCF35F0FE0EDBCF36F03550DE
:103FD00002E1190E36183BE0800E351802E10C0E96
:103FE000361830E0400E351802E1060E361825E08E
:103FF000200E351802E1030E36181AE0900E35181F
:1040000002E1010E36180FE0C80E351801E13650F6
:1040100005E06A0ECA6EDD0ECB6E1ED06A0ECA6E49
:10402000DD0ECB6E19D0520ECA6E8C0ECB6E14D034
:10403000520ECA6E450ECB6E0FD0510ECA6E8C0E4C
:10404000CB6E0AD0510ECA6E450ECB6E05D0500E07
:10405000CA6E8C0ECB6E00D0CC6A9F929E929D82CF
:10406000CA84E552E7CFD9FF12009D92CA9412008C
:10407000D9CFE6FFE1CFD9FF020EE126FE0EDBCF5E
:1040800000F002013851D880005412E39D9CFE0ECE
:10409000DB04E96EEA6AD890E936EA36420EE92690
:1040A000020EEA22EECFDEFFEDCFDDFF9D8C02D0C7
:1040B000DE6ADD6ADECF00F0DDCF01F000C0F3FF85
:1040C00001C0F4FF00D0D9CFE1FFE552E7CFD9FF1F
:1040D0001200D9CFE6FFE1CFD9FFFD0EDBCF00F014
:1040E000FE0EDBCF01F0026A036A880E386E130EF3
:1040F000396E3A6A3B6A00C033F001C034F002C046
:1041000035F003C036F072EC29F02FC000F030C05B
:1041100001F031C002F032C003F0386A080E396E87
:104120003A6A3B6A00C033F001C034F002C035F097
:1041300003C036F055EC1CF033C000F034C001F081
:1041400035C002F036C003F000C0F3FF01C0F4FF39
:1041500000D0E552E7CFD9FF1200D9CFE6FFE1CF7B
:10416000D9FFE6529D9CFFC1DFFF9D8CDF5000D040
:10417000E552E552E7CFD9FF12009D9C0101FF6B8C
:104180009D8C1200C2821200D9CFE6FFE1CFD9FF89
:10419000050EE126C450DE6EDD6AD9CFE9FFDACF25
:1041A000EAFFEE50ED6EEF6AC350DE26000EDD2210
:1041B000DECF00F0DDCF01F0026A036A0201485150
:1041C000040DF3CFE9FFF4CFEAFF3A0EE926020E21
:1041D000EA220050EE260150EE220250EE22035059
:1041E000EE22482B3851485D04E3486B462B000E05
:1041F0004723020E48C2DBFFDB50040D020EF3CF53
:10420000DBFFDB80DB50C26E3651465D37514759CC
:1042100001E283D0030EDB6A040EDB6A030EDBCF00
:1042200000F0040EDBCF01F002013851000101AEB5
:1042300002D0D89003D0005C000E01583AE2030E81
:10424000DBCFE9FF040EDBCFEAFFD890E936EA3690
:10425000D890E936EA363A0EE926020EEA22020141
:1042600039511F0BEECF00F0EECF01F0EECF02F090
:10427000EECF03F007E0D890033202320132003271
:10428000E806F9E1030EDBCFE9FF040EDBCFEAFF1E
:10429000D890E936EA36420EE926020EEA2200C03C
:1042A000EEFF01C0EDFF030EDB2A040E01E3DB2A63
:1042B000B5D7030EDB6A040EDB6A030EDBCF00F01A
:1042C000040EDBCF01F002013851000101AE02D033
:1042D000D89003D0005C000E01581AE2030EDBCF29
:1042E000E9FF040EDBCFEAFFD890E936EA36D89032
:1042F000E936EA363A0EE926020EEA22EE6AEE6A5C
:10430000EE6AEE6A030EDB2A040E01E3DB2AD5D740
:104310000101FF2B0201466B476BD9CFE1FFE5524C
:06432000E7CFD9FF1200F7
:0A432600000EE96EEA6E0400A0EC40
:1043300021F0EA2A080EEA5CD8A496EF21F01200D8
:10434000EF6AE93EA0EF21F01200FF0EE3CF21F06B
:1043500021380F0B060FD8B2070F2A0FAD6E1BECDA
:1043600026F021500F0B060FD8B2070F2A0FAD6EA3
:104370001BEC26F0000C1200EACF1CF0E9CF1DF078
:10438000FF0EE3CFEAFFFE0EE3CFE9FFC0A741D067
:10439000EECFA0F0EECFA1F0EECFA2F0EECFA3F0E3
:1043A000EECFA4F0EECFA5F0EECFA6F0EECFA7F0C3
:1043B000EECFA8F0EECFA9F0EECFAAF0EECFABF0A3
:1043C000EECFACF0EECFADF0EECFAEF0EECFAFF083
:1043D000EECFB0F0EECFB1F0EECFB2F0EECFB3F063
:1043E000EECFB4F0EECFB5F0EECFB6F0EECFB7F043
:1043F000EECFB8F0EECFB9F0EECFBAF0EECFBBF023
:10440000EECFBCF0EECFBDF0EECFBEF0EECFBFF002
:1044100040D0EECF80F0EECF81F0EECF82F0EECF45
:1044200083F0EECF84F0EECF85F0EECF86F0EECFC6
:1044300087F0EECF88F0EECF89F0EECF8AF0EECFA6
:104440008BF0EECF8CF0EECF8DF0EECF8EF0EECF86
:104450008FF0EECF90F0EECF91F0EECF92F0EECF66
:1044600093F0EECF94F0EECF95F0EECF96F0EECF46
:1044700097F0EECF98F0EECF99F0EECF9AF0EECF26
:104480009BF0EECF9CF0EECF9DF0EECF9EF0EECF06
:104490009FF01CC0EAFF1DC0E9FF1200C0A112007E
:1044A000EACF1CF0E9CF1DF0FF0EE3CFEAFFFE0ECE
:1044B000E3CFE9FFC0A941D0C0C0EEFFC1C0EEFF0D
:1044C000C2C0EEFFC3C0EEFFC4C0EEFFC5C0EEFF2A
:1044D000C6C0EEFFC7C0EEFFC8C0EEFFC9C0EEFF0A
:1044E000CAC0EEFFCBC0EEFFCCC0EEFFCDC0EEFFEA
:1044F000CEC0EEFFCFC0EEFFD0C0EEFFD1C0EEFFCA
:10450000D2C0EEFFD3C0EEFFD4C0EEFFD5C0EEFFA9
:10451000D6C0EEFFD7C0EEFFD8C0EEFFD9C0EEFF89
:10452000DAC0EEFFDBC0EEFFDCC0EEFFDDC0EEFF69
:10453000DEC0EEFFDFC0EEFF40D0E0C0EEFFE1C026
:10454000EEFFE2C0EEFFE3C0EEFFE4C0EEFFE5C029
:10455000EEFFE6C0EEFFE7C0EEFFE8C0EEFFE9C009
:10456000EEFFEAC0EEFFEBC0EEFFECC0EEFFEDC0E9
:10457000EEFFEEC0EEFFEFC0EEFFF0C0EEFFF1C0C9
:10458000EEFFF2C0EEFFF3C0EEFFF4C0EEFFF5C0A9
:10459000EEFFF6C0EEFFF7C0EEFFF8C0EEFFF9C089
:1045A000EEFFFAC0EEFFFBC0EEFFFCC0EEFFFDC069
:1045B000EEFFFEC0EEFFFFC0EEFF1CC0EAFF1DC015
:1045C000E9FF1200F2B412002E500F0AD8B4120004
:1045D000FF0EE3CF22F0FE0EE3CF23F0FD0EE3CF7C
:1045E00024F0FC0EE3CF25F0222A2EA08D8E232A64
:1045F0002EA28F80242A2EA48F86252A2EA68F886D
:10460000266A276A286A296A35EC23F0222E0BEFE6
:1046100023F02EA08D9E232E10EF23F02EA28F903C
:10462000242E15EF23F02EA48F960000252E1BEFCD
:1046300023F02EA68F980000262E20EF23F02A903C
:104640000000272E25EF23F02A920000282E2AEFC3
:1046500023F02A940000292E2FEF23F02A9657ECFE
:1046600023F02B3E06EF23F01200D70E2B6E000036
:104670000000000000004DEC23F02B2E37EF23F05C
:10468000D70E2B6E00000000000000004DEC23F060
:104690002B2E42EF23F000001200000050EF23F019
:1046A0000000000000000000000000001200030EE7
:0C46B0002C6E00002C2E59EF23F012009D
:0446BC00150EAF6EBA
:1046C000AC849D9A9D98AC98AC9E948EAB9CAB9616
:1046D000AB8AAB889F9A9D8A020189698A69949CFA
:1046E000AC9CAC969F989D88AC8AAB8E1200150E40
:1046F0006F6E6C84A39AA3986C986C9E98846B9C44
:104700006B966B8A6B88A59AA38A020189698A696C
:1047100098926C9C6C96A598A3886C8A6B8E1200FC
:10472000D9CFE6FFE1CFD9FFE6529D9A20C2DFFF45
:104730009D8ADF5000D0E552E552E7CFD9FF120045
:10474000D9CFE6FFE1CFD9FFE652A39A2CC2DFFF13
:10475000A38ADF5000D0E552E552E7CFD9FF12001F
:10476000D9CFE6FFE1CFD9FFE65202011D5103E0A8
:10477000000E17D016D01E51EA6A000FE96E010E26
:10478000EA22EFCFDFFF20071E2B1F0E1E179D9A78
:104790001F511E5D02E1010E1D6F9D8A1C6BDF50D3
:1047A00000D0E552E552E7CFD9FF1200D9CFE6FF9E
:1047B000E1CFD9FFE6520201295103E0000E17D0E4
:1047C00016D02A51EA6A400FE96E010EEA22EFCFB5
:1047D000DFFF2C072A2B1F0E2A17A39A2B512A5DC5
:1047E00002E1010E296FA38A286BDF5000D0E55249
:1047F000E552E7CFD9FF1200D9CFE6FFE1CFD9FFCD
:104800000201235101E0FCD72651EA6A200FE96E2C
:10481000010EEA22FE0EDBCFEFFF272B262B1F0E09
:1048200026179D982651255D02E1010E236F9D8874
:10483000246BE552E7CFD9FF1200D9CFE6FFE1CFD5
:10484000D9FF02012F5101E0FCD73251EA6A600F13
:10485000E96E010EEA22FE0EDBCFEFFF332B322B87
:104860001F0E3217A3983251315D02E1010E2F6FF6
:10487000A388306BE552E7CFD9FF120002011C512B
:1048800002E09D9A19D01F51EA6A000FE96E010EED
:10489000EA22AECFEFFFABA203D0AB98AB88212BBF
:1048A000ABB4222B202B1F2B1F0E1F171F511E5D79
:1048B00002E1010E1C6F1D6B12000201285102E083
:1048C000A39A19D02B51EA6A400FE96E010EEA2231
:1048D0006ECFEFFF6BA203D06B986B882D2B6BB460
:1048E0002E2B2C2B2B2B1F0E2B172B512A5D02E16D
:1048F000010E286F296B12000201245102E09D98DD
:1049000012D02551EA6A200FE96E010EEA22EF501B
:10491000AD6E2707252B1F0E25172651255D02E1B9
:10492000010E246F236B12000201305102E0A398A4
:1049300012D03151EA6A600FE96E010EEA22EF509F
:104940006D6E3307312B1F0E31173251315D02E18D
:10495000010E306F2F6B1200D9CFE6FFE1CFD9FFE8
:1049600002011B5101E110D01B0506E1FE0EDBCF59
:10497000E6FF42DFE55208D0020E1B5D05E1FE0EA8
:10498000DBCFE6FF5ADFE552E552E7CFD9FF120051
:1049900002014D6B4E6B4F6B506B576B12004BC24D
:1049A00033F04CC234F0356A366A34AE02D0356822
:1049B0003668200E386E030E396E3A6A3B6A72EC26
:1049C00029F02FC033F030C034F031C035F032C0A0
:1049D00036F0050E386E396A3A6A3B6A72EC29F095
:1049E0002FC033F030C034F031C035F032C036F073
:1049F000386A080E396E3A6A3B6A55EC1CF033C0CF
:104A000000F034C001F0E80E0102F3CF01F0030E14
:104A10000002F3500126E80E0002F3CF00F0F4503C
:104A20000126E80E3A6E030E3B6E00C035F001C061
:104A300036F02FEC1CF035C000F036C001F000C09D
:104A4000F3FF01C0F4FF00D012004DC233F04EC29C
:104A500034F04FC235F050C236F0200E386E030EDF
:104A6000396E3A6A3B6A72EC29F02FC033F030C0DD
:104A700034F031C035F032C036F0050E386E396A88
:104A80003A6A3B6A72EC29F02FC033F030C034F040
:104A900031C035F032C036F0386AC80E396E3A6A25
:104AA0003B6A55EC1CF0E80E386E030E396E3A6A1C
:104AB0003B6A72EC29F02FC033F030C034F031C0C3
:104AC00035F032C036F0E80E386E030E396E3A6AB1
:104AD0003B6A55EC1CF000D012000201575108E16E
:104AE000516B526B536B546B556B566B010E576F7A
:104AF0001200020157051EE155C200F056C201F036
:104B0000026A036A51C233F052C234F053C235F024
:104B100054C236F000C038F001C039F002C03AF09B
:104B200003C03BF043EC2AF033C049F234C04AF2F0
:104B30000201576B120049C2F3FF4AC2F4FF00D0D2
:104B40001200D9CFE6FFE1CFD9FFFD0EDBCF49F24E
:104B5000FE0EDBCF4AF2E552E7CFD9FF1200020189
:104B60004D6B4E6B4F6B506B1200D9CFE6FFE1CF10
:104B7000D9FF020EE1260201570517E1010EE66E8C
:104B800038EC20F0E552F3CF00F0F4CF01F0000153
:104B90000050020151270001015002015223000E72
:104BA00053235423552B562340D0010EE66E38EC88
:104BB00020F0E55202014951F35C006E4A51F4586D
:104BC000016E00C0DEFF01C0DDFFDECF00F0DDCFF3
:104BD00001F0D880015004E7F00E005CFF0E015890
:104BE0000BE3DECF02F0DDCF03F0033404E202502A
:104BF0001008000E035417E2DECF4BF2DDCF4CF26B
:104C0000DECF00F0DDCF01F0026A036A01AE02D010
:104C10000268036800504D2701504E2302504F2375
:104C20000350502302D04B6B4C6BD9CFE1FFE552C0
:064C3000E7CFD9FF1200DE
:0A4C36009EB802D0FDD7FCD7120093
:104C4000D9CFE6FFE1CFD9FFFE0EDBCFE6FFA5EC23
:104C500021F0E5520D0EAD6EEEDFE552E7CFD9FF44
:104C60001200D9CFE6FFE1CFD9FF0F01D950FD0FD8
:104C7000506FFF0EDA20516F010EEA6A5025E96E7F
:104C80005151EA22EF50E66EA5EC21F0E55250CFEB
:104C9000E9FF51CFEAFFEF50E66EA5EC21F0E552B7
:104CA0000D0EAD6EC8DFE552E7CFD9FF1200D9CFA8
:104CB000E6FFE1CFD9FFFD0EDBCF00F0FE0EDBCF2C
:104CC00001F0026A00C0E6FF01C0E6FF02C0E6FF95
:104CD000000EE66E0F0EE66E9AEC28F0F56E050EED
:104CE000E15EF550000EE66E0F0EE66EB3EC28F0B6
:104CF000E552E552F3CF54FFF4CF55FF0F01553580
:104D000004E254515008000E555503E2500E546F02
:104D1000556B566B576B57515519E8AE02D0553548
:104D200004D05451565D555157590EE2000E562588
:104D3000E96E0F0E5721EA6EEF50AD6E7CDF0F016A
:104D4000562B000E5723E7D7E552E7CFD9FF1200C5
:104D5000D9CFE6FFE1CFD9FF0F01526B1A0E525D9A
:104D600011E2FD0EDBCFE9FFDB2AFE0EDBCFEAFF0F
:104D700001E3DB2AEF50E66EA5EC21F0E5520F01CE
:104D8000522BECD70D0EAD6E56DFE552E7CFD9FFB3
:104D900012000F01A00E506F010E516F0101A051C2
:104DA0000201826F836B8451821902E1855183195C
:104DB00018E00101C0A502D0C0950FD084C2E6FF63
:104DC000A5EC21F0E55282C2E6FFA5EC21F0E55208
:104DD0000D0EAD6E30DF0101C09582C284F283C238
:104DE00085F20201842B000E8523853504E284516F
:104DF000FF08000E855502E2846B856B1200150ECC
:104E0000E66E3C0EE66E11EC2AF0E552E552320EEB
:104E1000E66ED2EC2AF0E5521200D9CFE6FFE1CFE0
:104E2000D9FFFE0EDBCF53FFE552E7CFD9FF1200CB
:104E3000D9CFE6FFE1CFD9FF020EE1260F0EE66ED5
:104E4000FE0EDB507F0BFE0BFD0BE66EF10EE66EE9
:104E5000AAEC29F0E552E552E5520A0EE66EFEECA8
:104E60002AF0E55215EC2BF007EC04F0000901E004
:104E7000FBD767EC2AF012EC2BF0C450026E02C094
:104E800003F0026AC35000010210006E03C001F07B
:104E900000C0DEFF01C0DDFFDECF00F0DDCF01F09E
:104EA00000C0F3FF01C0F4FF00D0D9CFE1FFE5520D
:064EB000E7CFD9FF12005C
:0A4EB60054696C7420416E676C654E
:104EC000202850574D76616C29203D2025640D0A1D
:104ED000002050616E20416E676C65202850574D50
:104EE00076616C29203D2025640D0A000D0A0053CF
:104EF0006561726368696E672E2E2E0D0A00503A46
:104F0000202564207C20493A202564207C20443AD6
:104F1000202564207C206572726F723A20256420FF
:104F20007C204B703A202564207C204B693A202558
:104F3000640D0A00446F6E650D000D43616C63756E
:104F40006C6174696E67204779726F204269617382
:104F50002E2E2E00636F756E74657231203A2025F7
:104F6000640D0A004175746F53746F6F70203A209E
:104F70002564207C2041696D3A202564207C2043F3
:104F80006F6E666964656E63653A202564207C20D7
:104F900063616D50616E3A2025640D0A00204669F8
:104FA0006E64696E672054617267657420002063C7
:104FB0006F756E746572313A202564207C205068CC
:104FC0006173653A202564207C2074696D65203DFD
:074FD000202564207C200075
:014FD70000D9
:084FD8000201875102016F196B
:104FE00004E1020188510201701954E00201862B8C
:104FF000050E865D4FE3866B0101C25111E1EF0E94
:10500000006E4E0E016E026A00C0E6FF01C0E6FFB0
:1050100002C0E6FFE6EC28F0E552E552E5523AD050
:10502000EC0E006E4E0E016E026A00C0E6FF01C07B
:10503000E6FF02C0E6FFE6EC28F0E552E552E55255
:1050400001018451E66EE66AD10E006E4E0E016ECD
:10505000026A00C0E6FF01C0E6FF02C0E6FFE6EC20
:1050600028F0F56E050EE15EF55001018551E66E02
:10507000E66AB60E006E4E0E016E026A00C0E6FFD2
:1050800001C0E6FF02C0E6FFE6EC28F0F56E050E73
:06509000E15EF550120084
:0A5096001E0EF66E080EF76E000EF7
:1050A000F86E02010900F550696F0900F5506A6F4A
:1050B00003E1696701D03DD00900F550646F090034
:1050C000F550656F0900F550666F09000900F5504D
:1050D000E96E0900F550EA6E090009000900F55073
:1050E000676F0900F550686F09000900F6CF6BF291
:1050F000F7CF6CF2F8CF6DF264C2F6FF65C2F7FF2E
:1051000066C2F8FF0201675302E1685307E0090035
:10511000F550EE6E6707F8E26807F9D76BC2F6FF45
:105120006CC2F7FF6DC2F8FF02016907000E6A5BEF
:04513000BFD71200D3
:0C513400FB0EE3CFF6FFFC0EE3CFF7FF0D
:10514000FD0EE3CFF8FFFE0EE3CFE9FFFF0EE3CF46
:10515000EAFFE9CFF3FFEACFF4FF0900F5CFEFFF55
:10516000EE66FBD71200FE0EE3CFE9FFFF0EE3CFA2
:10517000EAFFF36AF46AEE5203E0F34AF42AFBD73B
:105180001200FF0EE3CFF8FFE552FF0EE3CFF7FF6B
:10519000E552FF0EE3CFF6FFE552E66AE66AE66AFD
:1051A0000900F55209E0FD0EE32A05E1FE0EE32AAF
:1051B00002E1FF0EE32AF4D7FD0EE3CF34F0FE0E3A
:0C51C000E3CF35F0FF0EE3CF36F0120015
:0451CC00D9CFE6FF52
:1051D000DACFE6FFE1CFD9FFE2CFDAFFE652E652BF
:1051E000E652E652D950FB0F006EFF0EDA20016E38
:1051F00000C0DEFFDD6EDECFE6FFDDCFE6FFFB0E9B
:10520000DBCFE6FFFC0EDBCFE6FFFD0EDBCFE6FFDC
:1052100089C2E6FF8AC2E6FF5CEC04F0F56E070E79
:10522000E15C02E2E16AE552E16EF550020EF3CF75
:10523000DBFF030EF4CFDBFF020EDBCF00F0030E2B
:10524000DBCF01F000C0F3FF01C0F4FFD9CFE1FFD5
:10525000DACFE2FFE552E5CFDAFFE7CFD9FF120060
:10526000D9CFE6FFDACFE6FFE1CFD9FFE2CFDAFF11
:10527000FB0EDBCF00F0FC0EDBCF01F00001800E57
:1052800001141AE1FB0EDBCFE9FFFC0EDBCFEAFFD6
:10529000EECFF3FFEDCFF4FFEE2A000EEF22F3CFB7
:1052A000E9FFF4CFEAFFFD0EDBCFEFFFEF50016A1D
:1052B000F36E01C0F4FF10D0FB0EDB50FE0806E1D8
:1052C000FD0EDBCFE6FFE2EC2AF005D0FD0EDBCFD2
:1052D000E6FFACEC24F0E552E552E5CFDAFFE7CF8C
:0452E000D9FF1200E0
:0C52E40033503802F3CF2FF0F4CF30F03D
:1052F0003902F3503026000EF420316E33503A025A
:10530000F3503126000EF420326E33503B02F3503E
:10531000322634503802F3503026F4503122000E39
:10532000322234503902F3503126F45032223450B4
:105330003A02F350322635503802F3503126F450F9
:10534000322235503902F350322636503802F350AB
:0453500032261200EF
:0C535400D9CFE6FFDACFE6FFE1CFD9FFAA
:10536000E2CFDAFFC26AC16AC06AFC0EDB407F0B83
:105370003C0BC26EFB0EDB50C16EFC0EDB38F00B3B
:10538000300BC112FD0EDB50800BC06EFD0EDB3802
:105390000F0B070BC012FD0EDB50040DF350380B42
:1053A000C012FC0EDBAE03D09E9C9D8CF28CC280A2
:0C53B000E552E5CFDAFFE7CFD9FF12008D
:0453BC00D9CFE6FF60
:1053C000DACFE6FFE1CFD9FFE2CFDAFF3F0EC71613
:1053D000C66AFD0EDB50C612FB0EDB50C712FC0E78
:1053E000DB50030A09E0010A04E0020A06E1C78C67
:1053F00004D0C78CC68801D0C688FD0EDB50050AD4
:1054000003E0010A04E1978E9486C79E01D094962A
:10541000949A9488C68AE552E5CFDAFFE7CFD9FFA0
:02542000120078
:0E542200D9CFE6FFDACFE6FFE1CFD9FFE2CF28
:10543000DAFFAC6AAB6AFD0EDBB0AC88DBA202D04F
:10544000AC8CAB8CDBB4AC8EDBA602D0AB8801D0CD
:10545000AB8ADBA802D0AC8401D0AC94DBAC02D028
:105460009D8A01D09D9ADBAE02D09D8801D09D9887
:10547000FC0EDB50AF6EAC8AAB8EE552E5CFDAFFA7
:06548000E7CFD9FF120086
:0A548600326A316A306A2F6A200E84
:10549000E76ED89033363436353636362F363036DA
:1054A0003136323638502F5C395030583A503158F6
:1054B0003B50325809E338502F5E3950305A3A5039
:0E54C000315A3B50325A332AE72EE4D71200FD
:0254CE00D9CF34
:1054D000E6FFDACFE6FFE1CFD9FFE2CFDAFFE6520F
:1054E000E652C350DF6E010EC4CFDBFFDECF00F00B
:1054F000DDCF01F000C0F3FF01C0F4FFE552E5523B
:0C550000E552E5CFDAFFE7CFD9FF12003B
:04550C00326A316A64
:10551000100EE76ED89035363636313632363A5080
:10552000315C3B50325805E33A50315E3B50325AC1
:08553000352AE72EF0D7120026
:085538005EEC14F0D0EC0AF067
:105540000101C0910101C0A107D027EC0BF00101BE
:10555000A1AD02D019EC10F0EFEC13F0F3D712006C
:10556000F36AF46AFF0EE124E96EFF0EE220EA6EB0
:10557000ED6607D02F0EEF6404D03A0EEF6001D035
:04558000F32A1200F8
:0C5584001EEE00F02EEE00F0F86A3E9CD7
:10559000A68EA69C93EC21F04BEC28F09CEC2AF014
:0455A000F9D7120025
:0C55A400FF0EE350436E480E01D04C0E89
:1055B000E76EE72EFED7E76AE72EFED7432EF7D732
:0455C00000001200D5
:0C55C400FF0EE350ACBA04D0AF6AAB8E0F
:1055D000AC8A949CACA2FED7AD6EF36EF46A120056
:1055E000326A080EE76ED890363632363B50325C5F
:0C55F00002E3326E362AE72EF7D71200D5
:0455FC00FF0EE3506B
:10560000E84E1200000000D000D000D0E82EFAD7FB
:02561000120086
:0E5612003031323334353637383961626364F3
:03562000656600BC
:06562400C2909D9C1200E3
:04562A00C282120026
:02562E0000007A
:10563000000000000000000000000000000000006A
:09564000007F7FE632000000004B
:07564900000000000000005A
:015650000059
:045651000000010054
:0356550000000052
:08565800000001000000000049
:105660000001000000000100000000000001000037
:015670000039
:045671000000000035
:0A5675000000000000000001010128
:00000001FF
